{
  "contractName": "ConvertLib",
  "abi": [
    {
      "constant": true,
      "inputs": [
        {
          "name": "amount",
          "type": "uint256"
        },
        {
          "name": "conversionRate",
          "type": "uint256"
        }
      ],
      "name": "convert",
      "outputs": [
        {
          "name": "convertedAmount",
          "type": "uint256"
        }
      ],
      "payable": false,
      "stateMutability": "pure",
      "type": "function"
    }
  ],
  "bytecode": "0x609a610024600b82828239805160001a607314601757fe5b30600052607381538281f3fe730000000000000000000000000000000000000000301460806040526004361060335760003560e01c806396e4ee3d146038575b600080fd5b605860048036036040811015604c57600080fd5b5080359060200135606a565b60408051918252519081900360200190f35b029056fea165627a7a72305820cc3736765b10307f9f9c0422e4ce0b2ad348c0a37d0cb5e65f1a1cd0a863777f0029",
  "source": "pragma solidity >=0.4.22 <0.6.0;\r\n\r\nlibrary ConvertLib{\r\n\tfunction convert(uint amount,uint conversionRate) public pure returns (uint convertedAmount)\r\n\t{\r\n\t\treturn amount * conversionRate;\r\n\t}\r\n}\r\n",
  "sourcePath": "D:/workspace/blockchain/store_string/contracts/ConvertLib.sol",
  "compiler": {
    "name": "solc",
    "version": "0.5.8+commit.23d335f2.Emscripten.clang"
  },
  "schemaVersion": "3.0.11",
  "updatedAt": "2019-08-02T16:28:01.812Z",
  "devdoc": {
    "methods": {}
  },
  "userdoc": {
    "methods": {}
  }
}