{
  "contractName": "Counter",
  "abi": [
    {
      "anonymous": false,
      "inputs": [
        {
          "indexed": false,
          "name": "count",
          "type": "int256"
        }
      ],
      "name": "CounterIncrementedEvent",
      "type": "event"
    },
    {
      "anonymous": false,
      "inputs": [
        {
          "indexed": false,
          "name": "count",
          "type": "int256"
        }
      ],
      "name": "CounterDecrementedEvent",
      "type": "event"
    },
    {
      "constant": false,
      "inputs": [],
      "name": "incrementCounter",
      "outputs": [],
      "payable": false,
      "stateMutability": "nonpayable",
      "type": "function"
    },
    {
      "constant": false,
      "inputs": [],
      "name": "decrementCounter",
      "outputs": [],
      "payable": false,
      "stateMutability": "nonpayable",
      "type": "function"
    },
    {
      "constant": true,
      "inputs": [],
      "name": "getCount",
      "outputs": [
        {
          "name": "",
          "type": "int256"
        }
      ],
      "payable": false,
      "stateMutability": "view",
      "type": "function"
    }
  ],
  "bytecode": "0x60806040526000805534801561001457600080fd5b50610118806100246000396000f3fe6080604052348015600f57600080fd5b5060043610603c5760003560e01c80635b34b966146041578063a87d942c146049578063f5c5ad83146061575b600080fd5b60476067565b005b604f60a6565b60408051918252519081900360200190f35b604760ac565b600080546001019081905560408051918252517f2b8aae75497b415ec8dd158a87b4d5cedb24d05b83cac28b11bc446c4d2aecf39181900360200190a1565b60005490565b60008054600019019081905560408051918252517fb70f3bf2e57ab20f026a0750786f555fa8c1c31ea06943c6a851a443c7aba11b9181900360200190a156fea165627a7a723058203c536f825aecf40dad7751f485e63303a6f90ea0626a1de5e1e45c0a87ebea780029",
  "source": "pragma solidity ^0.5.8;\r\n\r\ncontract Counter {\r\n    \r\n    event CounterIncrementedEvent(int count);\r\n    event CounterDecrementedEvent(int count);\r\n\r\n    int private count = 0;\r\n\r\n    function incrementCounter() public {\r\n        count += 1;\r\n        emit CounterIncrementedEvent(count);\r\n    }\r\n\r\n    function decrementCounter() public {\r\n        count -= 1;\r\n        emit CounterDecrementedEvent(count);\r\n    }\r\n\r\n    function getCount() public view returns (int) {\r\n        return count;\r\n    }\r\n}",
  "sourcePath": "D:/workspace/blockchain/store_string/contracts/counter.sol",
  "compiler": {
    "name": "solc",
    "version": "0.5.8+commit.23d335f2.Emscripten.clang"
  },
  "schemaVersion": "3.0.11",
  "updatedAt": "2019-08-02T16:28:01.814Z",
  "devdoc": {
    "methods": {}
  },
  "userdoc": {
    "methods": {}
  }
}