{
  "contractName": "storestr",
  "abi": [
    {
      "constant": false,
      "inputs": [
        {
          "name": "value",
          "type": "string"
        }
      ],
      "name": "createValue",
      "outputs": [
        {
          "name": "",
          "type": "int256"
        }
      ],
      "payable": false,
      "stateMutability": "nonpayable",
      "type": "function"
    },
    {
      "constant": true,
      "inputs": [
        {
          "name": "_key",
          "type": "int256"
        }
      ],
      "name": "getValue",
      "outputs": [
        {
          "name": "_val",
          "type": "string"
        }
      ],
      "payable": false,
      "stateMutability": "view",
      "type": "function"
    },
    {
      "constant": true,
      "inputs": [],
      "name": "getKey",
      "outputs": [
        {
          "name": "",
          "type": "int256"
        }
      ],
      "payable": false,
      "stateMutability": "view",
      "type": "function"
    }
  ],
  "bytecode": "0x6080604052600060015534801561001557600080fd5b50610366806100256000396000f3fe608060405234801561001057600080fd5b50600436106100415760003560e01c806382678dd614610046578063bd2ed3c114610060578063d6bc163114610106575b600080fd5b61004e610198565b60408051918252519081900360200190f35b61004e6004803603602081101561007657600080fd5b81019060208101813564010000000081111561009157600080fd5b8201836020820111156100a357600080fd5b803590602001918460018302840111640100000000831117156100c557600080fd5b91908080601f01602080910402602001604051908101604052809392919081815260200183838082843760009201919091525092955061019f945050505050565b6101236004803603602081101561011c57600080fd5b50356101f0565b6040805160208082528351818301528351919283929083019185019080838360005b8381101561015d578181015183820152602001610145565b50505050905090810190601f16801561018a5780820380516001836020036101000a031916815260200191505b509250505060405180910390f35b6001545b90565b60006101a961028f565b50604080516020808201835284825260015460009081528082529290922081518051929384936101dc92849201906102a2565b505060018054808201909155949350505050565b6000818152602081815260409182902080548351601f60026000196101006001861615020190931692909204918201849004840281018401909452808452606093928301828280156102835780601f1061025857610100808354040283529160200191610283565b820191906000526020600020905b81548152906001019060200180831161026657829003601f168201915b50505050509050919050565b6040518060200160405280606081525090565b828054600181600116156101000203166002900490600052602060002090601f016020900481019282601f106102e357805160ff1916838001178555610310565b82800160010185558215610310579182015b828111156103105782518255916020019190600101906102f5565b5061031c929150610320565b5090565b61019c91905b8082111561031c576000815560010161032656fea165627a7a72305820cc4926a0d4f23ab83bddc3aebdf5be57e195a84108d695833a00d9e4b96f814a0029",
  "source": "pragma solidity ^0.5.8;\r\n\r\ncontract storestr{\r\n    struct Value{\r\n        string value;\r\n    }\r\n    mapping(int => Value) KeyValue;\r\n\r\n    int private key = 0;\r\n\r\n    function createValue(string memory value) public returns (int) {\r\n        Value memory val = Value(value);\r\n        KeyValue[key] = val;\r\n        key += 1;\r\n        return key - 1;\r\n    }\r\n\r\n    function getValue(int _key) public view returns (string memory _val){\r\n        return KeyValue[_key].value;\r\n    }\r\n\r\n    //no setvalue to ensure immutability\r\n\r\n    function getKey() public view returns (int){\r\n        return key;\r\n    }\r\n}",
  "sourcePath": "D:/workspace/blockchain/store_string/contracts/storestr.sol",
  "compiler": {
    "name": "solc",
    "version": "0.5.8+commit.23d335f2.Emscripten.clang"
  },
  "schemaVersion": "3.0.11",
  "updatedAt": "2019-08-02T16:28:01.814Z",
  "devdoc": {
    "methods": {}
  },
  "userdoc": {
    "methods": {}
  }
}